{
  "contractName": "Disburse",
  "abi": [
    {
      "inputs": [],
      "payable": false,
      "stateMutability": "nonpayable",
      "type": "constructor"
    },
    {
      "constant": true,
      "inputs": [
        {
          "internalType": "address",
          "name": "",
          "type": "address"
        }
      ],
      "name": "balanceOf",
      "outputs": [
        {
          "internalType": "uint256",
          "name": "",
          "type": "uint256"
        }
      ],
      "payable": false,
      "stateMutability": "view",
      "type": "function"
    },
    {
      "constant": true,
      "inputs": [],
      "name": "owner",
      "outputs": [
        {
          "internalType": "address",
          "name": "",
          "type": "address"
        }
      ],
      "payable": false,
      "stateMutability": "view",
      "type": "function"
    },
    {
      "constant": false,
      "inputs": [
        {
          "internalType": "address",
          "name": "newOwner",
          "type": "address"
        }
      ],
      "name": "changeOwner",
      "outputs": [],
      "payable": false,
      "stateMutability": "nonpayable",
      "type": "function"
    },
    {
      "constant": false,
      "inputs": [
        {
          "internalType": "uint256",
          "name": "amount",
          "type": "uint256"
        }
      ],
      "name": "deposit",
      "outputs": [],
      "payable": true,
      "stateMutability": "payable",
      "type": "function"
    },
    {
      "constant": false,
      "inputs": [],
      "name": "deposit",
      "outputs": [],
      "payable": true,
      "stateMutability": "payable",
      "type": "function"
    },
    {
      "constant": false,
      "inputs": [
        {
          "internalType": "uint256",
          "name": "amount",
          "type": "uint256"
        }
      ],
      "name": "withdraw",
      "outputs": [],
      "payable": false,
      "stateMutability": "nonpayable",
      "type": "function"
    },
    {
      "constant": false,
      "inputs": [],
      "name": "withdraw",
      "outputs": [],
      "payable": false,
      "stateMutability": "nonpayable",
      "type": "function"
    },
    {
      "constant": true,
      "inputs": [],
      "name": "getBalance",
      "outputs": [
        {
          "internalType": "uint256",
          "name": "",
          "type": "uint256"
        }
      ],
      "payable": false,
      "stateMutability": "view",
      "type": "function"
    },
    {
      "constant": false,
      "inputs": [
        {
          "internalType": "uint256",
          "name": "numberOfDays",
          "type": "uint256"
        }
      ],
      "name": "setDeadline",
      "outputs": [],
      "payable": true,
      "stateMutability": "payable",
      "type": "function"
    },
    {
      "constant": false,
      "inputs": [],
      "name": "disburse",
      "outputs": [],
      "payable": true,
      "stateMutability": "payable",
      "type": "function"
    }
  ],
  "bytecode": "0x608060405234801561001057600080fd5b50336000806101000a81548173ffffffffffffffffffffffffffffffffffffffff021916908373ffffffffffffffffffffffffffffffffffffffff1602179055506105f2806100606000396000f3fe6080604052600436106100915760003560e01c80638da5cb5b116100595780638da5cb5b146101a6578063a6f9dae1146101fd578063abc6fd0b1461024e578063b6b55f2514610258578063d0e30db01461028657610091565b806312065fe014610096578063195199f6146100c15780632e1a7d4d146100ef5780633ccfd60b1461012a57806370a0823114610141575b600080fd5b3480156100a257600080fd5b506100ab610290565b6040518082815260200191505060405180910390f35b6100ed600480360360208110156100d757600080fd5b8101908080359060200190929190505050610298565b005b3480156100fb57600080fd5b506101286004803603602081101561011257600080fd5b81019080803590602001909291905050506102a9565b005b34801561013657600080fd5b5061013f61038c565b005b34801561014d57600080fd5b506101906004803603602081101561016457600080fd5b81019080803573ffffffffffffffffffffffffffffffffffffffff16906020019092919050505061042e565b6040518082815260200191505060405180910390f35b3480156101b257600080fd5b506101bb610446565b604051808273ffffffffffffffffffffffffffffffffffffffff1673ffffffffffffffffffffffffffffffffffffffff16815260200191505060405180910390f35b34801561020957600080fd5b5061024c6004803603602081101561022057600080fd5b81019080803573ffffffffffffffffffffffffffffffffffffffff16906020019092919050505061046b565b005b610256610507565b005b6102846004803603602081101561026e57600080fd5b810190808035906020019092919050505061055f565b005b61028e6105bb565b005b600047905090565b620151808102420160018190555050565b600260003373ffffffffffffffffffffffffffffffffffffffff1673ffffffffffffffffffffffffffffffffffffffff168152602001908152602001600020548111156102f557600080fd5b80600260003373ffffffffffffffffffffffffffffffffffffffff1673ffffffffffffffffffffffffffffffffffffffff168152602001908152602001600020600082825403925050819055503373ffffffffffffffffffffffffffffffffffffffff166108fc829081150290604051600060405180830381858888f19350505050158015610388573d6000803e3d6000fd5b5050565b3373ffffffffffffffffffffffffffffffffffffffff166000809054906101000a900473ffffffffffffffffffffffffffffffffffffffff1673ffffffffffffffffffffffffffffffffffffffff16146103e557600080fd5b3373ffffffffffffffffffffffffffffffffffffffff166108fc479081150290604051600060405180830381858888f1935050505015801561042b573d6000803e3d6000fd5b50565b60026020528060005260406000206000915090505481565b6000809054906101000a900473ffffffffffffffffffffffffffffffffffffffff1681565b3373ffffffffffffffffffffffffffffffffffffffff166000809054906101000a900473ffffffffffffffffffffffffffffffffffffffff1673ffffffffffffffffffffffffffffffffffffffff16146104c457600080fd5b806000806101000a81548173ffffffffffffffffffffffffffffffffffffffff021916908373ffffffffffffffffffffffffffffffffffffffff16021790555050565b60015442101561051657600080fd5b3373ffffffffffffffffffffffffffffffffffffffff166108fc479081150290604051600060405180830381858888f1935050505015801561055c573d6000803e3d6000fd5b50565b80341461056b57600080fd5b80600260003373ffffffffffffffffffffffffffffffffffffffff1673ffffffffffffffffffffffffffffffffffffffff1681526020019081526020016000206000828254019250508190555050565b56fea265627a7a723158208d4109901b8d23bdd7a78ebbe95e9582a3dbda7b28355ff14b018710b1971f7b64736f6c63430005100032",
  "source": "// SPDX-License-Identifier: GPL-3.0\r\npragma solidity >=0.4.22 <0.8.0;\r\n\r\ncontract Disburse {\r\n    \r\n    address public owner;\r\n    uint256 deadline;                               // persistent contract storage\r\n    mapping(address => uint256) public balanceOf;   // balances, indexed by addresses\r\n\r\n    modifier ownerOnly {\r\n        require(owner == msg.sender);\r\n        _;   // <--- note the '_', which represents the modified function's body\r\n    }\r\n    \r\n    constructor() public {\r\n        owner = msg.sender;\r\n    }\r\n    \r\n    function changeOwner(address newOwner) public ownerOnly {\r\n        owner = newOwner;\r\n    }\r\n    \r\n    function deposit() payable public {\r\n        // nothing to do!\r\n    }\r\n    \r\n    function deposit(uint256 amount) payable public {\r\n        require(msg.value == amount);\r\n\r\n        balanceOf[msg.sender] += amount;     // adjust the account's balance\r\n    }\r\n    \r\n    function withdraw() public ownerOnly {\r\n        msg.sender.transfer(address(this).balance);\r\n    }\r\n    \r\n    function withdraw(uint256 amount) public {\r\n        require(amount <= balanceOf[msg.sender]);\r\n        balanceOf[msg.sender] -= amount;\r\n        msg.sender.transfer(amount);\r\n    }    \r\n    \r\n    // Retrieve contract balance\r\n    function getBalance() public view returns (uint256) {\r\n        return address(this).balance;\r\n    }\r\n    \r\n    function setDeadline(uint256 numberOfDays) public payable {\r\n        deadline = block.timestamp + (numberOfDays * 1 days);\r\n    }\r\n\r\n    function disburse() public payable {\r\n        require(block.timestamp >= deadline);\r\n        msg.sender.transfer(address(this).balance);\r\n    }\r\n    \r\n}",
  "sourcePath": "C:/Users/johnm/OneDrive/Desktop/Code/app/contracts/Disburse.sol",
  "compiler": {
    "name": "solc",
    "version": "0.5.16+commit.9c3226ce.Emscripten.clang"
  },
  "schemaVersion": "3.3.2",
  "updatedAt": "2020-11-27T06:53:40.403Z",
  "devdoc": {
    "methods": {}
  },
  "userdoc": {
    "methods": {}
  }
}