{
  "contractName": "Disburse",
  "abi": [
    {
      "inputs": [],
      "payable": false,
      "stateMutability": "nonpayable",
      "type": "constructor"
    },
    {
      "constant": true,
      "inputs": [
        {
          "internalType": "address",
          "name": "",
          "type": "address"
        }
      ],
      "name": "balanceOf",
      "outputs": [
        {
          "internalType": "uint256",
          "name": "",
          "type": "uint256"
        }
      ],
      "payable": false,
      "stateMutability": "view",
      "type": "function"
    },
    {
      "constant": true,
      "inputs": [],
      "name": "owner",
      "outputs": [
        {
          "internalType": "address",
          "name": "",
          "type": "address"
        }
      ],
      "payable": false,
      "stateMutability": "view",
      "type": "function"
    },
    {
      "constant": false,
      "inputs": [
        {
          "internalType": "address",
          "name": "newOwner",
          "type": "address"
        }
      ],
      "name": "changeOwner",
      "outputs": [],
      "payable": false,
      "stateMutability": "nonpayable",
      "type": "function"
    },
    {
      "constant": false,
      "inputs": [
        {
          "internalType": "uint256",
          "name": "amount",
          "type": "uint256"
        }
      ],
      "name": "deposit",
      "outputs": [],
      "payable": true,
      "stateMutability": "payable",
      "type": "function"
    },
    {
      "constant": false,
      "inputs": [],
      "name": "deposit",
      "outputs": [],
      "payable": true,
      "stateMutability": "payable",
      "type": "function"
    },
    {
      "constant": false,
      "inputs": [
        {
          "internalType": "uint256",
          "name": "amount",
          "type": "uint256"
        }
      ],
      "name": "withdraw",
      "outputs": [],
      "payable": false,
      "stateMutability": "nonpayable",
      "type": "function"
    },
    {
      "constant": false,
      "inputs": [],
      "name": "withdraw",
      "outputs": [],
      "payable": false,
      "stateMutability": "nonpayable",
      "type": "function"
    },
    {
      "constant": true,
      "inputs": [],
      "name": "getBalance",
      "outputs": [
        {
          "internalType": "uint256",
          "name": "",
          "type": "uint256"
        }
      ],
      "payable": false,
      "stateMutability": "view",
      "type": "function"
    },
    {
      "constant": false,
      "inputs": [
        {
          "internalType": "uint256",
          "name": "numberOfDays",
          "type": "uint256"
        }
      ],
      "name": "setDeadline",
      "outputs": [],
      "payable": true,
      "stateMutability": "payable",
      "type": "function"
    },
    {
      "constant": false,
      "inputs": [],
      "name": "disburse",
      "outputs": [],
      "payable": true,
      "stateMutability": "payable",
      "type": "function"
    },
    {
      "constant": false,
      "inputs": [],
      "name": "kill",
      "outputs": [],
      "payable": false,
      "stateMutability": "nonpayable",
      "type": "function"
    }
  ],
  "bytecode": "0x608060405234801561001057600080fd5b50336000806101000a81548173ffffffffffffffffffffffffffffffffffffffff021916908373ffffffffffffffffffffffffffffffffffffffff160217905550610686806100606000396000f3fe60806040526004361061009c5760003560e01c806370a082311161006457806370a08231146101635780638da5cb5b146101c8578063a6f9dae11461021f578063abc6fd0b14610270578063b6b55f251461027a578063d0e30db0146102a85761009c565b806312065fe0146100a1578063195199f6146100cc5780632e1a7d4d146100fa5780633ccfd60b1461013557806341c0e1b51461014c575b600080fd5b3480156100ad57600080fd5b506100b66102b2565b6040518082815260200191505060405180910390f35b6100f8600480360360208110156100e257600080fd5b81019080803590602001909291905050506102ba565b005b34801561010657600080fd5b506101336004803603602081101561011d57600080fd5b81019080803590602001909291905050506102cb565b005b34801561014157600080fd5b5061014a6103ae565b005b34801561015857600080fd5b50610161610450565b005b34801561016f57600080fd5b506101b26004803603602081101561018657600080fd5b81019080803573ffffffffffffffffffffffffffffffffffffffff1690602001909291905050506104c2565b6040518082815260200191505060405180910390f35b3480156101d457600080fd5b506101dd6104da565b604051808273ffffffffffffffffffffffffffffffffffffffff1673ffffffffffffffffffffffffffffffffffffffff16815260200191505060405180910390f35b34801561022b57600080fd5b5061026e6004803603602081101561024257600080fd5b81019080803573ffffffffffffffffffffffffffffffffffffffff1690602001909291905050506104ff565b005b61027861059b565b005b6102a66004803603602081101561029057600080fd5b81019080803590602001909291905050506105f3565b005b6102b061064f565b005b600047905090565b620151808102420160018190555050565b600260003373ffffffffffffffffffffffffffffffffffffffff1673ffffffffffffffffffffffffffffffffffffffff1681526020019081526020016000205481111561031757600080fd5b80600260003373ffffffffffffffffffffffffffffffffffffffff1673ffffffffffffffffffffffffffffffffffffffff168152602001908152602001600020600082825403925050819055503373ffffffffffffffffffffffffffffffffffffffff166108fc829081150290604051600060405180830381858888f193505050501580156103aa573d6000803e3d6000fd5b5050565b3373ffffffffffffffffffffffffffffffffffffffff166000809054906101000a900473ffffffffffffffffffffffffffffffffffffffff1673ffffffffffffffffffffffffffffffffffffffff161461040757600080fd5b3373ffffffffffffffffffffffffffffffffffffffff166108fc479081150290604051600060405180830381858888f1935050505015801561044d573d6000803e3d6000fd5b50565b6000809054906101000a900473ffffffffffffffffffffffffffffffffffffffff1673ffffffffffffffffffffffffffffffffffffffff163373ffffffffffffffffffffffffffffffffffffffff16146104a957600080fd5b3373ffffffffffffffffffffffffffffffffffffffff16ff5b60026020528060005260406000206000915090505481565b6000809054906101000a900473ffffffffffffffffffffffffffffffffffffffff1681565b3373ffffffffffffffffffffffffffffffffffffffff166000809054906101000a900473ffffffffffffffffffffffffffffffffffffffff1673ffffffffffffffffffffffffffffffffffffffff161461055857600080fd5b806000806101000a81548173ffffffffffffffffffffffffffffffffffffffff021916908373ffffffffffffffffffffffffffffffffffffffff16021790555050565b6001544210156105aa57600080fd5b3373ffffffffffffffffffffffffffffffffffffffff166108fc479081150290604051600060405180830381858888f193505050501580156105f0573d6000803e3d6000fd5b50565b8034146105ff57600080fd5b80600260003373ffffffffffffffffffffffffffffffffffffffff1673ffffffffffffffffffffffffffffffffffffffff1681526020019081526020016000206000828254019250508190555050565b56fea265627a7a7231582064d8aa117f50bc831e98dd1c51be2414faabb49643fcefebd6f6bcf9d7c3f78f64736f6c63430005100032",
  "source": "// SPDX-License-Identifier: GPL-3.0\r\npragma solidity >=0.4.22 <0.8.0;\r\n\r\ncontract Disburse {\r\n    \r\n    address public owner;\r\n    uint256 deadline;                               // persistent contract storage\r\n    mapping(address => uint256) public balanceOf;   // balances, indexed by addresses\r\n\r\n    modifier ownerOnly {\r\n        require(owner == msg.sender);\r\n        _;   // <--- note the '_', which represents the modified function's body\r\n    }\r\n    \r\n    constructor() public {\r\n        owner = msg.sender;\r\n    }\r\n    \r\n    function changeOwner(address newOwner) public ownerOnly {\r\n        owner = newOwner;\r\n    }\r\n    \r\n    function deposit() payable public {\r\n        // nothing to do!\r\n    }\r\n    \r\n    function deposit(uint256 amount) payable public {\r\n        require(msg.value == amount);\r\n\r\n        balanceOf[msg.sender] += amount;     // adjust the account's balance\r\n    }\r\n    \r\n    function withdraw() public ownerOnly {\r\n        msg.sender.transfer(address(this).balance);\r\n    }\r\n    \r\n    function withdraw(uint256 amount) public {\r\n        require(amount <= balanceOf[msg.sender]);\r\n        balanceOf[msg.sender] -= amount;\r\n        msg.sender.transfer(amount);\r\n    }    \r\n    \r\n    // Retrieve contract balance\r\n    function getBalance() public view returns (uint256) {\r\n        return address(this).balance;\r\n    }\r\n    \r\n    function setDeadline(uint256 numberOfDays) public payable {\r\n        deadline = block.timestamp + (numberOfDays * 1 days);\r\n    }\r\n\r\n    function disburse() public payable {\r\n        require(block.timestamp >= deadline);\r\n        msg.sender.transfer(address(this).balance);\r\n    }\r\n\r\n    // Destroy contract and reclaim leftover funds.\r\n    function kill() public {\r\n        require(msg.sender == owner);\r\n        selfdestruct(msg.sender);\r\n    }\r\n    \r\n}",
  "sourcePath": "D:/Code/app/contracts/Disburse.sol",
  "compiler": {
    "name": "solc",
    "version": "0.5.16+commit.9c3226ce.Emscripten.clang"
  },
  "schemaVersion": "3.3.2",
  "updatedAt": "2020-11-30T22:05:49.697Z",
  "devdoc": {
    "methods": {}
  },
  "userdoc": {
    "methods": {}
  }
}