{
  "contractName": "Disburse",
  "abi": [
    {
      "constant": true,
      "inputs": [],
      "name": "admin",
      "outputs": [
        {
          "internalType": "address",
          "name": "",
          "type": "address"
        }
      ],
      "payable": false,
      "stateMutability": "view",
      "type": "function"
    },
    {
      "constant": false,
      "inputs": [
        {
          "internalType": "uint256",
          "name": "amount",
          "type": "uint256"
        }
      ],
      "name": "deposit",
      "outputs": [],
      "payable": true,
      "stateMutability": "payable",
      "type": "function"
    },
    {
      "constant": false,
      "inputs": [],
      "name": "deposit",
      "outputs": [],
      "payable": true,
      "stateMutability": "payable",
      "type": "function"
    },
    {
      "constant": false,
      "inputs": [],
      "name": "withdraw",
      "outputs": [],
      "payable": false,
      "stateMutability": "nonpayable",
      "type": "function"
    },
    {
      "constant": true,
      "inputs": [],
      "name": "getBalance",
      "outputs": [
        {
          "internalType": "uint256",
          "name": "",
          "type": "uint256"
        }
      ],
      "payable": false,
      "stateMutability": "view",
      "type": "function"
    },
    {
      "constant": false,
      "inputs": [
        {
          "internalType": "uint256",
          "name": "numberOfDays",
          "type": "uint256"
        }
      ],
      "name": "setDisburseDate",
      "outputs": [],
      "payable": false,
      "stateMutability": "nonpayable",
      "type": "function"
    },
    {
      "constant": false,
      "inputs": [],
      "name": "disburse",
      "outputs": [],
      "payable": true,
      "stateMutability": "payable",
      "type": "function"
    }
  ],
  "bytecode": "0x608060405234801561001057600080fd5b506102b0806100206000396000f3fe6080604052600436106100705760003560e01c8063abc6fd0b1161004e578063abc6fd0b146100f2578063b6b55f25146100fc578063d0e30db01461012a578063f851a4401461013457610070565b806312065fe0146100755780633ccfd60b146100a05780635a5750a9146100b7575b600080fd5b34801561008157600080fd5b5061008a61018b565b6040518082815260200191505060405180910390f35b3480156100ac57600080fd5b506100b5610193565b005b3480156100c357600080fd5b506100f0600480360360208110156100da57600080fd5b81019080803590602001909291905050506101dc565b005b6100fa6101ed565b005b6101286004803603602081101561011257600080fd5b8101908080359060200190929190505050610245565b005b610132610254565b005b34801561014057600080fd5b50610149610256565b604051808273ffffffffffffffffffffffffffffffffffffffff1673ffffffffffffffffffffffffffffffffffffffff16815260200191505060405180910390f35b600047905090565b3373ffffffffffffffffffffffffffffffffffffffff166108fc479081150290604051600060405180830381858888f193505050501580156101d9573d6000803e3d6000fd5b50565b620151808102420160018190555050565b6001544210156101fc57600080fd5b3373ffffffffffffffffffffffffffffffffffffffff166108fc479081150290604051600060405180830381858888f19350505050158015610242573d6000803e3d6000fd5b50565b80341461025157600080fd5b50565b565b6000809054906101000a900473ffffffffffffffffffffffffffffffffffffffff168156fea265627a7a723158209c7f6c08c348371ca37cf83e118cf4de46697de6dfe53e2ada039b1efb786b0e64736f6c63430005100032",
  "source": "// SPDX-License-Identifier: GPL-3.0\r\npragma solidity >=0.4.22 <0.8.0;\r\n\r\ncontract Disburse {\r\n    \r\n    address public admin;\r\n    uint256 deadline;\r\n    \r\n    modifier restricted() {\r\n        require(\r\n        msg.sender == admin,\r\n        \"This function is restricted to the administrator\"\r\n        );\r\n        _;\r\n    }\r\n    \r\n    function deposit() payable public {\r\n        // nothing to do!\r\n    }\r\n    \r\n    function deposit(uint256 amount) payable public {\r\n        require(msg.value == amount);\r\n        // nothing else to do!\r\n    }\r\n    \r\n    function withdraw() public {\r\n        msg.sender.transfer(address(this).balance);\r\n    }\r\n    \r\n    // Retrieve contract balance\r\n    function getBalance() public view returns (uint256) {\r\n        return address(this).balance;\r\n    }\r\n    \r\n    function setDisburseDate(uint256 numberOfDays) public {\r\n        \r\n        // The Ethereum Virtual Machine represents time as the (integer) number of seconds \r\n        // since the “Unix epoch”\r\n        \r\n        // https://www.epochconverter.com/\r\n\r\n        // Solidity provides convenient time units like days and years, which are helpful \r\n        // in computing time spans.\r\n        \r\n        deadline = block.timestamp + (numberOfDays * 1 days);\r\n    }\r\n    \r\n    function disburse() public payable {\r\n        \r\n        require(block.timestamp >= deadline);\r\n\r\n        msg.sender.transfer(address(this).balance);\r\n    }\r\n    \r\n}",
  "sourcePath": "C:/Users/johnm/OneDrive/Desktop/Code/app/contracts/Disburse.sol",
  "compiler": {
    "name": "solc",
    "version": "0.5.16+commit.9c3226ce.Emscripten.clang"
  },
  "schemaVersion": "3.3.2",
  "updatedAt": "2020-11-27T04:52:08.988Z",
  "devdoc": {
    "methods": {}
  },
  "userdoc": {
    "methods": {}
  }
}