{
  "contractName": "Machine",
  "abi": [
    {
      "inputs": [
        {
          "internalType": "contract Storage",
          "name": "addr",
          "type": "address"
        }
      ],
      "payable": false,
      "stateMutability": "nonpayable",
      "type": "constructor"
    },
    {
      "constant": true,
      "inputs": [],
      "name": "storageAddress",
      "outputs": [
        {
          "internalType": "contract Storage",
          "name": "",
          "type": "address"
        }
      ],
      "payable": false,
      "stateMutability": "view",
      "type": "function"
    },
    {
      "constant": false,
      "inputs": [
        {
          "internalType": "uint256",
          "name": "x",
          "type": "uint256"
        }
      ],
      "name": "saveValue",
      "outputs": [
        {
          "internalType": "bool",
          "name": "",
          "type": "bool"
        }
      ],
      "payable": false,
      "stateMutability": "nonpayable",
      "type": "function"
    },
    {
      "constant": true,
      "inputs": [],
      "name": "getValue",
      "outputs": [
        {
          "internalType": "uint256",
          "name": "",
          "type": "uint256"
        }
      ],
      "payable": false,
      "stateMutability": "view",
      "type": "function"
    }
  ],
  "bytecode": "0x608060405234801561001057600080fd5b506040516103223803806103228339818101604052602081101561003357600080fd5b8101908080519060200190929190505050806000806101000a81548173ffffffffffffffffffffffffffffffffffffffff021916908373ffffffffffffffffffffffffffffffffffffffff1602179055505061028e806100946000396000f3fe608060405234801561001057600080fd5b50600436106100415760003560e01c8063209652551461004657806385aa92a714610064578063c14731ca146100ae575b600080fd5b61004e6100f4565b6040518082815260200191505060405180910390f35b61006c61019d565b604051808273ffffffffffffffffffffffffffffffffffffffff1673ffffffffffffffffffffffffffffffffffffffff16815260200191505060405180910390f35b6100da600480360360208110156100c457600080fd5b81019080803590602001909291905050506101c2565b604051808215151515815260200191505060405180910390f35b60008060009054906101000a900473ffffffffffffffffffffffffffffffffffffffff1673ffffffffffffffffffffffffffffffffffffffff16632e64cec16040518163ffffffff1660e01b815260040160206040518083038186803b15801561015d57600080fd5b505afa158015610171573d6000803e3d6000fd5b505050506040513d602081101561018757600080fd5b8101908080519060200190929190505050905090565b6000809054906101000a900473ffffffffffffffffffffffffffffffffffffffff1681565b60008060009054906101000a900473ffffffffffffffffffffffffffffffffffffffff1673ffffffffffffffffffffffffffffffffffffffff16636057361d836040518263ffffffff1660e01b815260040180828152602001915050600060405180830381600087803b15801561023857600080fd5b505af115801561024c573d6000803e3d6000fd5b505050506001905091905056fea265627a7a7231582000ea6bd95aa4b175b1343ed3c41b1f22fccf752db45aa5ea01c8fbaa22e0095864736f6c63430005100032",
  "source": "// SPDX-License-Identifier: MIT\r\npragma solidity >=0.4.22 <0.8.0;\r\n\r\nimport \"./Storage.sol\";\r\n\r\ncontract Machine {\r\n    \r\n    Storage public storageAddress;\r\n\r\n    constructor(Storage addr) public {\r\n        storageAddress = addr;\r\n    }\r\n    \r\n    function saveValue(uint x) public returns (bool) {\r\n        storageAddress.store(x);\r\n        return true;\r\n    }\r\n\r\n    function getValue() public view returns (uint) {\r\n        return storageAddress.retrieve();\r\n    }\r\n}",
  "sourcePath": "C:/Users/johnm/OneDrive/Desktop/Code/app/contracts/Machine.sol",
  "compiler": {
    "name": "solc",
    "version": "0.5.16+commit.9c3226ce.Emscripten.clang"
  },
  "schemaVersion": "3.3.2",
  "updatedAt": "2020-11-26T16:24:36.315Z",
  "devdoc": {
    "methods": {}
  },
  "userdoc": {
    "methods": {}
  }
}