{
  "contractName": "Machine",
  "abi": [
    {
      "inputs": [],
      "stateMutability": "nonpayable",
      "type": "constructor"
    },
    {
      "inputs": [],
      "name": "admin",
      "outputs": [
        {
          "internalType": "address",
          "name": "",
          "type": "address"
        }
      ],
      "stateMutability": "view",
      "type": "function"
    },
    {
      "inputs": [],
      "name": "storageAddress",
      "outputs": [
        {
          "internalType": "contract Storage",
          "name": "",
          "type": "address"
        }
      ],
      "stateMutability": "view",
      "type": "function"
    },
    {
      "inputs": [
        {
          "internalType": "contract Storage",
          "name": "_address",
          "type": "address"
        }
      ],
      "name": "setStorageAddress",
      "outputs": [],
      "stateMutability": "nonpayable",
      "type": "function"
    },
    {
      "inputs": [
        {
          "internalType": "uint256",
          "name": "x",
          "type": "uint256"
        }
      ],
      "name": "saveValue",
      "outputs": [
        {
          "internalType": "bool",
          "name": "",
          "type": "bool"
        }
      ],
      "stateMutability": "nonpayable",
      "type": "function"
    },
    {
      "inputs": [],
      "name": "getValue",
      "outputs": [
        {
          "internalType": "uint256",
          "name": "",
          "type": "uint256"
        }
      ],
      "stateMutability": "view",
      "type": "function"
    }
  ],
  "bytecode": "0x608060405234801561001057600080fd5b50336000806101000a81548173ffffffffffffffffffffffffffffffffffffffff021916908373ffffffffffffffffffffffffffffffffffffffff160217905550610444806100606000396000f3fe608060405234801561001057600080fd5b50600436106100575760003560e01c8063209652551461005c57806359b910d61461007a57806385aa92a7146100be578063c14731ca146100f2578063f851a44014610136575b600080fd5b61006461016a565b6040518082815260200191505060405180910390f35b6100bc6004803603602081101561009057600080fd5b81019080803573ffffffffffffffffffffffffffffffffffffffff169060200190929190505050610214565b005b6100c66102fc565b604051808273ffffffffffffffffffffffffffffffffffffffff16815260200191505060405180910390f35b61011e6004803603602081101561010857600080fd5b8101908080359060200190929190505050610322565b60405180821515815260200191505060405180910390f35b61013e6103ba565b604051808273ffffffffffffffffffffffffffffffffffffffff16815260200191505060405180910390f35b6000600160009054906101000a900473ffffffffffffffffffffffffffffffffffffffff1673ffffffffffffffffffffffffffffffffffffffff16632e64cec16040518163ffffffff1660e01b815260040160206040518083038186803b1580156101d457600080fd5b505afa1580156101e8573d6000803e3d6000fd5b505050506040513d60208110156101fe57600080fd5b8101908080519060200190929190505050905090565b60008054906101000a900473ffffffffffffffffffffffffffffffffffffffff1673ffffffffffffffffffffffffffffffffffffffff163373ffffffffffffffffffffffffffffffffffffffff16146102b8576040517f08c379a00000000000000000000000000000000000000000000000000000000081526004018080602001828103825260308152602001806103df6030913960400191505060405180910390fd5b80600160006101000a81548173ffffffffffffffffffffffffffffffffffffffff021916908373ffffffffffffffffffffffffffffffffffffffff16021790555050565b600160009054906101000a900473ffffffffffffffffffffffffffffffffffffffff1681565b6000600160009054906101000a900473ffffffffffffffffffffffffffffffffffffffff1673ffffffffffffffffffffffffffffffffffffffff16636057361d836040518263ffffffff1660e01b815260040180828152602001915050600060405180830381600087803b15801561039957600080fd5b505af11580156103ad573d6000803e3d6000fd5b5050505060019050919050565b60008054906101000a900473ffffffffffffffffffffffffffffffffffffffff168156fe546869732066756e6374696f6e206973207265737472696374656420746f207468652061646d696e6973747261746f72a26469706673582212204010780ef8838b41dd4a70fc79f35ea7e2aa739f3cc3efa882615dc02dbbe23964736f6c634300060c0033",
  "immutableReferences": {},
  "source": "// SPDX-License-Identifier: MIT\r\npragma solidity >=0.4.22 <0.8.0;\r\n\r\nimport \"./Storage.sol\";\r\n\r\ncontract Machine {\r\n    \r\n    address public admin;\r\n    Storage public storageAddress;\r\n\r\n    modifier restricted() {\r\n        require(\r\n        msg.sender == admin,\r\n        \"This function is restricted to the administrator\"\r\n        );\r\n        _;\r\n    }\r\n\r\n    constructor() public {\r\n        admin = msg.sender;\r\n    }\r\n    \r\n    function setStorageAddress(Storage _address) public restricted {\r\n        storageAddress = _address;\r\n    }\r\n\r\n    function saveValue(uint x) public returns (bool) {\r\n        storageAddress.store(x);\r\n        return true;\r\n    }\r\n\r\n    function getValue() public view returns (uint) {\r\n        return storageAddress.retrieve();\r\n    }\r\n}",
  "sourcePath": "D:/Code/app/contracts/patterns/Machine.sol",
  "compiler": {
    "name": "solc",
    "version": "0.6.12+commit.27d51765.Emscripten.clang"
  },
  "schemaVersion": "3.3.2",
  "updatedAt": "2021-01-08T19:51:43.584Z",
  "devdoc": {
    "kind": "dev",
    "methods": {},
    "version": 1
  },
  "userdoc": {
    "kind": "user",
    "methods": {},
    "version": 1
  }
}