{
  "contractName": "Machine",
  "abi": [
    {
      "inputs": [],
      "payable": false,
      "stateMutability": "nonpayable",
      "type": "constructor"
    },
    {
      "constant": true,
      "inputs": [],
      "name": "admin",
      "outputs": [
        {
          "internalType": "address",
          "name": "",
          "type": "address"
        }
      ],
      "payable": false,
      "stateMutability": "view",
      "type": "function"
    },
    {
      "constant": true,
      "inputs": [],
      "name": "storageAddress",
      "outputs": [
        {
          "internalType": "contract Storage",
          "name": "",
          "type": "address"
        }
      ],
      "payable": false,
      "stateMutability": "view",
      "type": "function"
    },
    {
      "constant": false,
      "inputs": [
        {
          "internalType": "contract Storage",
          "name": "_address",
          "type": "address"
        }
      ],
      "name": "setStorageAddress",
      "outputs": [],
      "payable": false,
      "stateMutability": "nonpayable",
      "type": "function"
    },
    {
      "constant": false,
      "inputs": [
        {
          "internalType": "uint256",
          "name": "x",
          "type": "uint256"
        }
      ],
      "name": "saveValue",
      "outputs": [
        {
          "internalType": "bool",
          "name": "",
          "type": "bool"
        }
      ],
      "payable": false,
      "stateMutability": "nonpayable",
      "type": "function"
    },
    {
      "constant": true,
      "inputs": [],
      "name": "getValue",
      "outputs": [
        {
          "internalType": "uint256",
          "name": "",
          "type": "uint256"
        }
      ],
      "payable": false,
      "stateMutability": "view",
      "type": "function"
    }
  ],
  "bytecode": "0x608060405234801561001057600080fd5b50336000806101000a81548173ffffffffffffffffffffffffffffffffffffffff021916908373ffffffffffffffffffffffffffffffffffffffff160217905550610473806100606000396000f3fe608060405234801561001057600080fd5b50600436106100575760003560e01c8063209652551461005c57806359b910d61461007a57806385aa92a7146100be578063c14731ca14610108578063f851a4401461014e575b600080fd5b610064610198565b6040518082815260200191505060405180910390f35b6100bc6004803603602081101561009057600080fd5b81019080803573ffffffffffffffffffffffffffffffffffffffff169060200190929190505050610242565b005b6100c661032b565b604051808273ffffffffffffffffffffffffffffffffffffffff1673ffffffffffffffffffffffffffffffffffffffff16815260200191505060405180910390f35b6101346004803603602081101561011e57600080fd5b8101908080359060200190929190505050610351565b604051808215151515815260200191505060405180910390f35b6101566103e9565b604051808273ffffffffffffffffffffffffffffffffffffffff1673ffffffffffffffffffffffffffffffffffffffff16815260200191505060405180910390f35b6000600160009054906101000a900473ffffffffffffffffffffffffffffffffffffffff1673ffffffffffffffffffffffffffffffffffffffff16632e64cec16040518163ffffffff1660e01b815260040160206040518083038186803b15801561020257600080fd5b505afa158015610216573d6000803e3d6000fd5b505050506040513d602081101561022c57600080fd5b8101908080519060200190929190505050905090565b6000809054906101000a900473ffffffffffffffffffffffffffffffffffffffff1673ffffffffffffffffffffffffffffffffffffffff163373ffffffffffffffffffffffffffffffffffffffff16146102e7576040517f08c379a000000000000000000000000000000000000000000000000000000000815260040180806020018281038252603081526020018061040f6030913960400191505060405180910390fd5b80600160006101000a81548173ffffffffffffffffffffffffffffffffffffffff021916908373ffffffffffffffffffffffffffffffffffffffff16021790555050565b600160009054906101000a900473ffffffffffffffffffffffffffffffffffffffff1681565b6000600160009054906101000a900473ffffffffffffffffffffffffffffffffffffffff1673ffffffffffffffffffffffffffffffffffffffff16636057361d836040518263ffffffff1660e01b815260040180828152602001915050600060405180830381600087803b1580156103c857600080fd5b505af11580156103dc573d6000803e3d6000fd5b5050505060019050919050565b6000809054906101000a900473ffffffffffffffffffffffffffffffffffffffff168156fe546869732066756e6374696f6e206973207265737472696374656420746f207468652061646d696e6973747261746f72a265627a7a72315820e4c501f230ecb45ae635897ea5b44e5b14308f04f7415c52f1520354a6dac08664736f6c63430005100032",
  "source": "// SPDX-License-Identifier: MIT\r\npragma solidity >=0.4.22 <0.8.0;\r\n\r\nimport \"./Storage.sol\";\r\n\r\ncontract Machine {\r\n    \r\n    address public admin;\r\n    Storage public storageAddress;\r\n\r\n    modifier restricted() {\r\n        require(\r\n        msg.sender == admin,\r\n        \"This function is restricted to the administrator\"\r\n        );\r\n        _;\r\n    }\r\n\r\n    constructor() public {\r\n        admin = msg.sender;\r\n    }\r\n    \r\n    function setStorageAddress(Storage _address) public restricted {\r\n        storageAddress = _address;\r\n    }\r\n\r\n    function saveValue(uint x) public returns (bool) {\r\n        storageAddress.store(x);\r\n        return true;\r\n    }\r\n\r\n    function getValue() public view returns (uint) {\r\n        return storageAddress.retrieve();\r\n    }\r\n}",
  "sourcePath": "D:/Code/app/contracts/Machine.sol",
  "compiler": {
    "name": "solc",
    "version": "0.5.16+commit.9c3226ce.Emscripten.clang"
  },
  "schemaVersion": "3.3.2",
  "updatedAt": "2020-11-29T02:36:35.655Z",
  "devdoc": {
    "methods": {}
  },
  "userdoc": {
    "methods": {}
  }
}