{
  "contractName": "Registry",
  "abi": [
    {
      "inputs": [],
      "payable": false,
      "stateMutability": "nonpayable",
      "type": "constructor"
    },
    {
      "constant": true,
      "inputs": [
        {
          "internalType": "string",
          "name": "",
          "type": "string"
        }
      ],
      "name": "contracts",
      "outputs": [
        {
          "internalType": "address",
          "name": "",
          "type": "address"
        }
      ],
      "payable": false,
      "stateMutability": "view",
      "type": "function"
    },
    {
      "constant": false,
      "inputs": [
        {
          "internalType": "string",
          "name": "id",
          "type": "string"
        },
        {
          "internalType": "address",
          "name": "contractAddress",
          "type": "address"
        }
      ],
      "name": "updateContract",
      "outputs": [],
      "payable": false,
      "stateMutability": "nonpayable",
      "type": "function"
    }
  ],
  "bytecode": "0x608060405234801561001057600080fd5b50336000806101000a81548173ffffffffffffffffffffffffffffffffffffffff021916908373ffffffffffffffffffffffffffffffffffffffff160217905550610394806100606000396000f3fe608060405234801561001057600080fd5b50600436106100365760003560e01c8063697a60b31461003b5780638c5b838514610116575b600080fd5b6101146004803603604081101561005157600080fd5b810190808035906020019064010000000081111561006e57600080fd5b82018360208201111561008057600080fd5b803590602001918460018302840111640100000000831117156100a257600080fd5b91908080601f016020809104026020016040519081016040528093929190818152602001838380828437600081840152601f19601f820116905080830192505050505050509192919290803573ffffffffffffffffffffffffffffffffffffffff169060200190929190505050610211565b005b6101cf6004803603602081101561012c57600080fd5b810190808035906020019064010000000081111561014957600080fd5b82018360208201111561015b57600080fd5b8035906020019184600183028401116401000000008311171561017d57600080fd5b91908080601f016020809104026020016040519081016040528093929190818152602001838380828437600081840152601f19601f820116905080830192505050505050509192919290505050610316565b604051808273ffffffffffffffffffffffffffffffffffffffff1673ffffffffffffffffffffffffffffffffffffffff16815260200191505060405180910390f35b6000809054906101000a900473ffffffffffffffffffffffffffffffffffffffff1673ffffffffffffffffffffffffffffffffffffffff163373ffffffffffffffffffffffffffffffffffffffff161461026a57600080fd5b806001836040518082805190602001908083835b602083106102a1578051825260208201915060208101905060208303925061027e565b6001836020036101000a038019825116818451168082178552505050505050905001915050908152602001604051809103902060006101000a81548173ffffffffffffffffffffffffffffffffffffffff021916908373ffffffffffffffffffffffffffffffffffffffff1602179055505050565b6001818051602081018201805184825260208301602085012081835280955050505050506000915054906101000a900473ffffffffffffffffffffffffffffffffffffffff168156fea265627a7a723158200280a7c317021877724025444d678267d89f3d49038375a4ae18b6f113f0d22464736f6c63430005100032",
  "source": "// SPDX-License-Identifier: GPL-3.0\r\npragma solidity >=0.4.22 <0.8.0;\r\n\r\ncontract Registry {\r\n    \r\n    address admin;\r\n    mapping(string => address) public contracts;\r\n    \r\n    constructor() public {\r\n        admin = msg.sender;\r\n    }\r\n    \r\n    // Calldata is a read-only byte array.\r\n    // Memory is a byte array.\r\n    function updateContract(string memory id, address contractAddress) public {\r\n        require(msg.sender == admin);\r\n        contracts[id] = contractAddress;\r\n    }\r\n \r\n    // Example retrieving contract from Registry:\r\n    // \r\n    // Registry registry;\r\n    // Token token = Token(registry.contracts(\"CONTRACT_NAME\"));\r\n    \r\n    // Example updating Registry in a contract using it:\r\n    //\r\n    // function updateRegistry(address registryAddress) public {\r\n    //   require(msg.sender == admin);\r\n    //   registry = Registry(registryAddress);\r\n    // }\r\n    \r\n}",
  "sourcePath": "D:/Code/app/contracts/Registry.sol",
  "compiler": {
    "name": "solc",
    "version": "0.5.16+commit.9c3226ce.Emscripten.clang"
  },
  "schemaVersion": "3.3.2",
  "updatedAt": "2020-12-11T01:39:02.788Z",
  "devdoc": {
    "methods": {}
  },
  "userdoc": {
    "methods": {}
  }
}