{
  "contractName": "Security",
  "abi": [
    {
      "inputs": [
        {
          "internalType": "address",
          "name": "_address",
          "type": "address"
        }
      ],
      "stateMutability": "nonpayable",
      "type": "constructor"
    },
    {
      "anonymous": false,
      "inputs": [
        {
          "indexed": false,
          "internalType": "address",
          "name": "account",
          "type": "address"
        }
      ],
      "name": "Paused",
      "type": "event"
    },
    {
      "anonymous": false,
      "inputs": [
        {
          "indexed": false,
          "internalType": "address",
          "name": "account",
          "type": "address"
        }
      ],
      "name": "Unpaused",
      "type": "event"
    },
    {
      "inputs": [],
      "name": "admin",
      "outputs": [
        {
          "internalType": "address",
          "name": "",
          "type": "address"
        }
      ],
      "stateMutability": "view",
      "type": "function"
    },
    {
      "inputs": [],
      "name": "isActive",
      "outputs": [
        {
          "internalType": "bool",
          "name": "",
          "type": "bool"
        }
      ],
      "stateMutability": "view",
      "type": "function"
    },
    {
      "inputs": [],
      "name": "paused",
      "outputs": [
        {
          "internalType": "bool",
          "name": "",
          "type": "bool"
        }
      ],
      "stateMutability": "view",
      "type": "function"
    },
    {
      "inputs": [],
      "name": "toggleCircuitBreaker",
      "outputs": [],
      "stateMutability": "nonpayable",
      "type": "function"
    }
  ],
  "bytecode": "0x60806040526001600060016101000a81548160ff02191690831515021790555034801561002b57600080fd5b506040516102a43803806102a48339818101604052602081101561004e57600080fd5b810190808051906020019092919050505060008060006101000a81548160ff02191690831515021790555080600060026101000a81548173ffffffffffffffffffffffffffffffffffffffff021916908373ffffffffffffffffffffffffffffffffffffffff160217905550506101da806100ca6000396000f3fe608060405234801561001057600080fd5b506004361061004c5760003560e01c806322f3e2d4146100515780635c975abb14610071578063d5eb63cc14610091578063f851a4401461009b575b600080fd5b6100596100cf565b60405180821515815260200191505060405180910390f35b6100796100e2565b60405180821515815260200191505060405180910390f35b6100996100f8565b005b6100a361017e565b604051808273ffffffffffffffffffffffffffffffffffffffff16815260200191505060405180910390f35b600060019054906101000a900460ff1681565b60008060009054906101000a900460ff16905090565b3373ffffffffffffffffffffffffffffffffffffffff16600060029054906101000a900473ffffffffffffffffffffffffffffffffffffffff1673ffffffffffffffffffffffffffffffffffffffff161461015257600080fd5b600060019054906101000a900460ff1615600060016101000a81548160ff021916908315150217905550565b600060029054906101000a900473ffffffffffffffffffffffffffffffffffffffff168156fea2646970667358221220aea0579f806e3dadbc57406ad9fe60e5af1af663c5778be70d0f32169acffa0364736f6c634300060c0033",
  "immutableReferences": {},
  "source": "// SPDX-License-Identifier: GPL-3.0\r\npragma solidity >=0.4.22 <0.8.0;\r\n\r\nimport \"../node_modules/@openzeppelin/contracts/utils/Pausable.sol\";\r\n\r\ncontract Security is Pausable {\r\n\r\n    bool public isActive = true;\r\n    address public admin;\r\n\r\n    modifier adminOnly {\r\n        require(admin == msg.sender);\r\n        _;   \r\n    }\r\n    \r\n    modifier active {\r\n        require(isActive == true);\r\n        _;\r\n    }\r\n    \r\n    constructor(address _address) Pausable() public {\r\n        admin = _address;\r\n    }\r\n    \r\n    function toggleCircuitBreaker() public {\r\n        require(admin == msg.sender);\r\n        isActive = !isActive;\r\n    }\r\n}",
  "sourcePath": "D:\\Code\\app\\contracts\\Security.sol",
  "compiler": {
    "name": "solc",
    "version": "0.6.12+commit.27d51765.Emscripten.clang"
  },
  "schemaVersion": "3.3.2",
  "updatedAt": "2020-12-11T16:31:34.677Z",
  "devdoc": {
    "kind": "dev",
    "methods": {
      "paused()": {
        "details": "Returns true if the contract is paused, and false otherwise."
      }
    },
    "version": 1
  },
  "userdoc": {
    "kind": "user",
    "methods": {},
    "version": 1
  }
}