{
  "contractName": "Security",
  "abi": [
    {
      "inputs": [
        {
          "internalType": "address",
          "name": "_address",
          "type": "address"
        }
      ],
      "payable": false,
      "stateMutability": "nonpayable",
      "type": "constructor"
    },
    {
      "constant": true,
      "inputs": [],
      "name": "admin",
      "outputs": [
        {
          "internalType": "address",
          "name": "",
          "type": "address"
        }
      ],
      "payable": false,
      "stateMutability": "view",
      "type": "function"
    },
    {
      "constant": true,
      "inputs": [],
      "name": "isActive",
      "outputs": [
        {
          "internalType": "bool",
          "name": "",
          "type": "bool"
        }
      ],
      "payable": false,
      "stateMutability": "view",
      "type": "function"
    },
    {
      "constant": false,
      "inputs": [],
      "name": "toggleCircuitBreaker",
      "outputs": [],
      "payable": false,
      "stateMutability": "nonpayable",
      "type": "function"
    }
  ],
  "bytecode": "0x608060405260016000806101000a81548160ff02191690831515021790555034801561002a57600080fd5b5060405161025c38038061025c8339818101604052602081101561004d57600080fd5b810190808051906020019092919050505080600060016101000a81548173ffffffffffffffffffffffffffffffffffffffff021916908373ffffffffffffffffffffffffffffffffffffffff160217905550506101ad806100af6000396000f3fe608060405234801561001057600080fd5b50600436106100415760003560e01c806322f3e2d414610046578063d5eb63cc14610068578063f851a44014610072575b600080fd5b61004e6100bc565b604051808215151515815260200191505060405180910390f35b6100706100ce565b005b61007a610152565b604051808273ffffffffffffffffffffffffffffffffffffffff1673ffffffffffffffffffffffffffffffffffffffff16815260200191505060405180910390f35b6000809054906101000a900460ff1681565b3373ffffffffffffffffffffffffffffffffffffffff16600060019054906101000a900473ffffffffffffffffffffffffffffffffffffffff1673ffffffffffffffffffffffffffffffffffffffff161461012857600080fd5b6000809054906101000a900460ff16156000806101000a81548160ff021916908315150217905550565b600060019054906101000a900473ffffffffffffffffffffffffffffffffffffffff168156fea265627a7a7231582083c4a82e94c2e2597afdb65326ff3e5de44750537eb4e16c2f74f7a48c777b6e64736f6c63430005100032",
  "source": "// SPDX-License-Identifier: GPL-3.0\r\npragma solidity >=0.4.22 <0.8.0;\r\n\r\ncontract Security {\r\n\r\n    bool public isActive = true;\r\n    address public admin;\r\n\r\n    modifier adminOnly {\r\n        require(admin == msg.sender);\r\n        _;   \r\n    }\r\n    \r\n    modifier active {\r\n        require(isActive == true);\r\n        _;\r\n    }\r\n    \r\n    constructor(address _address) public {\r\n        admin = _address;\r\n    }\r\n    \r\n    function toggleCircuitBreaker() public {\r\n        require(admin == msg.sender);\r\n        isActive = !isActive;\r\n    }\r\n}",
  "sourcePath": "D:\\Code\\app\\contracts\\Security.sol",
  "compiler": {
    "name": "solc",
    "version": "0.5.16+commit.9c3226ce.Emscripten.clang"
  },
  "schemaVersion": "3.3.2",
  "updatedAt": "2020-12-11T01:39:11.113Z",
  "devdoc": {
    "methods": {}
  },
  "userdoc": {
    "methods": {}
  }
}