{
  "contractName": "Trust",
  "abi": [
    {
      "constant": true,
      "inputs": [
        {
          "internalType": "address",
          "name": "",
          "type": "address"
        }
      ],
      "name": "balanceOf",
      "outputs": [
        {
          "internalType": "uint256",
          "name": "",
          "type": "uint256"
        }
      ],
      "payable": false,
      "stateMutability": "view",
      "type": "function"
    },
    {
      "constant": true,
      "inputs": [],
      "name": "beneficiary",
      "outputs": [
        {
          "internalType": "address payable",
          "name": "",
          "type": "address"
        }
      ],
      "payable": false,
      "stateMutability": "view",
      "type": "function"
    },
    {
      "constant": true,
      "inputs": [],
      "name": "deadline",
      "outputs": [
        {
          "internalType": "uint256",
          "name": "",
          "type": "uint256"
        }
      ],
      "payable": false,
      "stateMutability": "view",
      "type": "function"
    },
    {
      "constant": false,
      "inputs": [],
      "name": "initiateTrust",
      "outputs": [],
      "payable": true,
      "stateMutability": "payable",
      "type": "function"
    },
    {
      "constant": false,
      "inputs": [
        {
          "internalType": "address payable",
          "name": "_address",
          "type": "address"
        }
      ],
      "name": "setBeneficiary",
      "outputs": [],
      "payable": false,
      "stateMutability": "nonpayable",
      "type": "function"
    },
    {
      "constant": true,
      "inputs": [],
      "name": "getTrustBalance",
      "outputs": [
        {
          "internalType": "uint256",
          "name": "_balance",
          "type": "uint256"
        }
      ],
      "payable": false,
      "stateMutability": "view",
      "type": "function"
    },
    {
      "constant": false,
      "inputs": [],
      "name": "disburseFunds",
      "outputs": [],
      "payable": false,
      "stateMutability": "nonpayable",
      "type": "function"
    },
    {
      "constant": true,
      "inputs": [],
      "name": "getDeadlinePassed",
      "outputs": [
        {
          "internalType": "bool",
          "name": "",
          "type": "bool"
        }
      ],
      "payable": false,
      "stateMutability": "view",
      "type": "function"
    },
    {
      "constant": true,
      "inputs": [],
      "name": "getBlockTimestamp",
      "outputs": [
        {
          "internalType": "uint256",
          "name": "",
          "type": "uint256"
        }
      ],
      "payable": false,
      "stateMutability": "view",
      "type": "function"
    },
    {
      "constant": false,
      "inputs": [
        {
          "internalType": "uint256",
          "name": "sec",
          "type": "uint256"
        }
      ],
      "name": "setDeadlineSeconds",
      "outputs": [],
      "payable": false,
      "stateMutability": "nonpayable",
      "type": "function"
    },
    {
      "constant": false,
      "inputs": [
        {
          "internalType": "uint256",
          "name": "numberOfDays",
          "type": "uint256"
        }
      ],
      "name": "setDeadlineDays",
      "outputs": [],
      "payable": false,
      "stateMutability": "nonpayable",
      "type": "function"
    }
  ],
  "bytecode": "0x608060405234801561001057600080fd5b506104d3806100206000396000f3fe60806040526004361061009c5760003560e01c80635707ff58116100645780635707ff58146101c657806370a08231146101f1578063796b89b9146102565780638eceff9c14610281578063b2767fca1461028b578063e04095bb146102c65761009c565b806314ec993d146100a15780631c31f710146100b8578063281536f01461010957806329dcb0cf1461014457806338af3eed1461016f575b600080fd5b3480156100ad57600080fd5b506100b66102f5565b005b3480156100c457600080fd5b50610107600480360360208110156100db57600080fd5b81019080803573ffffffffffffffffffffffffffffffffffffffff169060200190929190505050610374565b005b34801561011557600080fd5b506101426004803603602081101561012c57600080fd5b81019080803590602001909291905050506103b8565b005b34801561015057600080fd5b506101596103c9565b6040518082815260200191505060405180910390f35b34801561017b57600080fd5b506101846103cf565b604051808273ffffffffffffffffffffffffffffffffffffffff1673ffffffffffffffffffffffffffffffffffffffff16815260200191505060405180910390f35b3480156101d257600080fd5b506101db6103f5565b6040518082815260200191505060405180910390f35b3480156101fd57600080fd5b506102406004803603602081101561021457600080fd5b81019080803573ffffffffffffffffffffffffffffffffffffffff1690602001909291905050506103fd565b6040518082815260200191505060405180910390f35b34801561026257600080fd5b5061026b610415565b6040518082815260200191505060405180910390f35b61028961041d565b005b34801561029757600080fd5b506102c4600480360360208110156102ae57600080fd5b8101908080359060200190929190505050610463565b005b3480156102d257600080fd5b506102db61046f565b604051808215151515815260200191505060405180910390f35b60006102ff61046f565b9050801561037157600160009054906101000a900473ffffffffffffffffffffffffffffffffffffffff1673ffffffffffffffffffffffffffffffffffffffff166108fc479081150290604051600060405180830381858888f1935050505015801561036f573d6000803e3d6000fd5b505b50565b80600160006101000a81548173ffffffffffffffffffffffffffffffffffffffff021916908373ffffffffffffffffffffffffffffffffffffffff16021790555050565b620151808102420160008190555050565b60005481565b600160009054906101000a900473ffffffffffffffffffffffffffffffffffffffff1681565b600047905090565b60026020528060005260406000206000915090505481565b600042905090565b34600260003373ffffffffffffffffffffffffffffffffffffffff1673ffffffffffffffffffffffffffffffffffffffff16815260200190815260200160002081905550565b80420160008190555050565b6000806000541415610484576000905061049b565b6000544210610496576001905061049b565b600090505b9056fea265627a7a723158200b2dd5e4b4cf68582c0ac5e25fab1cbed7cc9296fa76cb4ec62f18e62b712f4064736f6c63430005100032",
  "source": "// SPDX-License-Identifier: GPL-3.0\r\npragma solidity >=0.4.22 <0.8.0;\r\n\r\ncontract Trust {\r\n    \r\n    uint256 public deadline;   \r\n    address payable public beneficiary;\r\n    mapping(address => uint256) public balanceOf;\r\n\r\n    function initiateTrust() public payable {\r\n        balanceOf[msg.sender] = msg.value;\r\n    }\r\n    \r\n    function setBeneficiary(address payable _address) public {\r\n        beneficiary = _address;\r\n    }\r\n    \r\n    function getTrustBalance() public view returns(uint256 _balance) {\r\n        // Contract Balance\r\n        _balance = address(this).balance;\r\n    }\r\n    \r\n    function disburseFunds() public {\r\n        bool deadlinePassed = getDeadlinePassed();\r\n        \r\n        if (deadlinePassed){\r\n            beneficiary.transfer(address(this).balance);\r\n        }\r\n    }\r\n    \r\n    function getDeadlinePassed() public view returns (bool) {\r\n        \r\n        // Ensure deadline has been set\r\n        if (deadline == 0) return false;\r\n        \r\n        if (block.timestamp >= deadline) return true;\r\n        \r\n        return false;\r\n    }\r\n    \r\n    function getBlockTimestamp() public view returns(uint256) {\r\n        return block.timestamp;\r\n    }\r\n    \r\n    function setDeadlineSeconds(uint256 sec) public {\r\n        deadline = block.timestamp + sec;\r\n    }\r\n    \r\n    function setDeadlineDays(uint256 numberOfDays) public {\r\n        deadline = block.timestamp + (numberOfDays * 1 days);\r\n    }\r\n\r\n}",
  "sourcePath": "D:/Code/app/contracts/Trust.sol",
  "compiler": {
    "name": "solc",
    "version": "0.5.16+commit.9c3226ce.Emscripten.clang"
  },
  "schemaVersion": "3.3.2",
  "updatedAt": "2020-12-10T05:07:50.453Z",
  "devdoc": {
    "methods": {}
  },
  "userdoc": {
    "methods": {}
  }
}