{
  "contractName": "Trust",
  "abi": [
    {
      "inputs": [],
      "stateMutability": "nonpayable",
      "type": "constructor"
    },
    {
      "anonymous": false,
      "inputs": [
        {
          "indexed": false,
          "internalType": "address",
          "name": "account",
          "type": "address"
        }
      ],
      "name": "Paused",
      "type": "event"
    },
    {
      "anonymous": false,
      "inputs": [
        {
          "indexed": false,
          "internalType": "address",
          "name": "account",
          "type": "address"
        }
      ],
      "name": "Unpaused",
      "type": "event"
    },
    {
      "inputs": [],
      "name": "admin",
      "outputs": [
        {
          "internalType": "address",
          "name": "",
          "type": "address"
        }
      ],
      "stateMutability": "view",
      "type": "function"
    },
    {
      "inputs": [
        {
          "internalType": "address",
          "name": "",
          "type": "address"
        }
      ],
      "name": "balanceOf",
      "outputs": [
        {
          "internalType": "uint256",
          "name": "",
          "type": "uint256"
        }
      ],
      "stateMutability": "view",
      "type": "function"
    },
    {
      "inputs": [],
      "name": "beneficiary",
      "outputs": [
        {
          "internalType": "address payable",
          "name": "",
          "type": "address"
        }
      ],
      "stateMutability": "view",
      "type": "function"
    },
    {
      "inputs": [],
      "name": "deadline",
      "outputs": [
        {
          "internalType": "uint256",
          "name": "",
          "type": "uint256"
        }
      ],
      "stateMutability": "view",
      "type": "function"
    },
    {
      "inputs": [],
      "name": "isActive",
      "outputs": [
        {
          "internalType": "bool",
          "name": "",
          "type": "bool"
        }
      ],
      "stateMutability": "view",
      "type": "function"
    },
    {
      "inputs": [],
      "name": "paused",
      "outputs": [
        {
          "internalType": "bool",
          "name": "",
          "type": "bool"
        }
      ],
      "stateMutability": "view",
      "type": "function"
    },
    {
      "inputs": [],
      "name": "toggleCircuitBreaker",
      "outputs": [],
      "stateMutability": "nonpayable",
      "type": "function"
    },
    {
      "inputs": [],
      "name": "initiateTrust",
      "outputs": [],
      "stateMutability": "payable",
      "type": "function"
    },
    {
      "inputs": [
        {
          "internalType": "address payable",
          "name": "_address",
          "type": "address"
        }
      ],
      "name": "setBeneficiary",
      "outputs": [],
      "stateMutability": "nonpayable",
      "type": "function"
    },
    {
      "inputs": [],
      "name": "getTrustBalance",
      "outputs": [
        {
          "internalType": "uint256",
          "name": "_balance",
          "type": "uint256"
        }
      ],
      "stateMutability": "view",
      "type": "function"
    },
    {
      "inputs": [],
      "name": "disburseFunds",
      "outputs": [],
      "stateMutability": "nonpayable",
      "type": "function"
    },
    {
      "inputs": [],
      "name": "getDeadlinePassed",
      "outputs": [
        {
          "internalType": "bool",
          "name": "",
          "type": "bool"
        }
      ],
      "stateMutability": "view",
      "type": "function"
    },
    {
      "inputs": [],
      "name": "getBlockTimestamp",
      "outputs": [
        {
          "internalType": "uint256",
          "name": "",
          "type": "uint256"
        }
      ],
      "stateMutability": "view",
      "type": "function"
    },
    {
      "inputs": [
        {
          "internalType": "uint256",
          "name": "sec",
          "type": "uint256"
        }
      ],
      "name": "setDeadlineSeconds",
      "outputs": [],
      "stateMutability": "nonpayable",
      "type": "function"
    },
    {
      "inputs": [
        {
          "internalType": "uint256",
          "name": "numberOfDays",
          "type": "uint256"
        }
      ],
      "name": "setDeadlineDays",
      "outputs": [],
      "stateMutability": "nonpayable",
      "type": "function"
    },
    {
      "inputs": [
        {
          "internalType": "uint256",
          "name": "_amount",
          "type": "uint256"
        },
        {
          "internalType": "uint256",
          "name": "_bps",
          "type": "uint256"
        }
      ],
      "name": "calculatePercentage",
      "outputs": [
        {
          "internalType": "uint256",
          "name": "",
          "type": "uint256"
        }
      ],
      "stateMutability": "pure",
      "type": "function"
    }
  ],
  "bytecode": "0x60806040526001600060016101000a81548160ff02191690831515021790555034801561002b57600080fd5b503360008060006101000a81548160ff02191690831515021790555080600060026101000a81548173ffffffffffffffffffffffffffffffffffffffff021916908373ffffffffffffffffffffffffffffffffffffffff16021790555050610888806100986000396000f3fe6080604052600436106100f35760003560e01c80635c975abb1161008a578063b2767fca11610059578063b2767fca1461037f578063d5eb63cc146103ba578063e04095bb146103d1578063f851a440146103fe576100f3565b80635c975abb146102b857806370a08231146102e5578063796b89b91461034a5780638eceff9c14610375576100f3565b8063281536f0116100c6578063281536f0146101e657806329dcb0cf1461022157806338af3eed1461024c5780635707ff581461028d576100f3565b806314ec993d146100f85780631c31f7101461010f5780632133e3b91461016057806322f3e2d4146101b9575b600080fd5b34801561010457600080fd5b5061010d61043f565b005b34801561011b57600080fd5b5061015e6004803603602081101561013257600080fd5b81019080803573ffffffffffffffffffffffffffffffffffffffff1690602001909291905050506105b9565b005b34801561016c57600080fd5b506101a36004803603604081101561018357600080fd5b8101908080359060200190929190803590602001909291905050506105fd565b6040518082815260200191505060405180910390f35b3480156101c557600080fd5b506101ce610697565b60405180821515815260200191505060405180910390f35b3480156101f257600080fd5b5061021f6004803603602081101561020957600080fd5b81019080803590602001909291905050506106aa565b005b34801561022d57600080fd5b506102366106bb565b6040518082815260200191505060405180910390f35b34801561025857600080fd5b506102616106c1565b604051808273ffffffffffffffffffffffffffffffffffffffff16815260200191505060405180910390f35b34801561029957600080fd5b506102a26106e7565b6040518082815260200191505060405180910390f35b3480156102c457600080fd5b506102cd6106ef565b60405180821515815260200191505060405180910390f35b3480156102f157600080fd5b506103346004803603602081101561030857600080fd5b81019080803573ffffffffffffffffffffffffffffffffffffffff169060200190929190505050610705565b6040518082815260200191505060405180910390f35b34801561035657600080fd5b5061035f61071d565b6040518082815260200191505060405180910390f35b61037d610725565b005b34801561038b57600080fd5b506103b8600480360360208110156103a257600080fd5b810190808035906020019092919050505061076b565b005b3480156103c657600080fd5b506103cf610777565b005b3480156103dd57600080fd5b506103e66107fd565b60405180821515815260200191505060405180910390f35b34801561040a57600080fd5b5061041361082c565b604051808273ffffffffffffffffffffffffffffffffffffffff16815260200191505060405180910390f35b3373ffffffffffffffffffffffffffffffffffffffff16600060029054906101000a900473ffffffffffffffffffffffffffffffffffffffff1673ffffffffffffffffffffffffffffffffffffffff161461049957600080fd5b60008054906101000a900460ff161561051a576040517f08c379a00000000000000000000000000000000000000000000000000000000081526004018080602001828103825260108152602001807f5061757361626c653a207061757365640000000000000000000000000000000081525060200191505060405180910390fd5b60011515600060019054906101000a900460ff1615151461053a57600080fd5b60006105446107fd565b905080156105b657600260009054906101000a900473ffffffffffffffffffffffffffffffffffffffff1673ffffffffffffffffffffffffffffffffffffffff166108fc479081150290604051600060405180830381858888f193505050501580156105b4573d6000803e3d6000fd5b505b50565b80600260006101000a81548173ffffffffffffffffffffffffffffffffffffffff021916908373ffffffffffffffffffffffffffffffffffffffff16021790555050565b60008261271080858161060c57fe5b040214610681576040517f08c379a00000000000000000000000000000000000000000000000000000000081526004018080602001828103825260098152602001807f746f6f20736d616c6c000000000000000000000000000000000000000000000081525060200191505060405180910390fd5b6127108284028161068e57fe5b04905092915050565b600060019054906101000a900460ff1681565b620151808102420160018190555050565b60015481565b600260009054906101000a900473ffffffffffffffffffffffffffffffffffffffff1681565b600047905090565b60008060009054906101000a900460ff16905090565b60036020528060005260406000206000915090505481565b600042905090565b34600360003373ffffffffffffffffffffffffffffffffffffffff1673ffffffffffffffffffffffffffffffffffffffff16815260200190815260200160002081905550565b80420160018190555050565b3373ffffffffffffffffffffffffffffffffffffffff16600060029054906101000a900473ffffffffffffffffffffffffffffffffffffffff1673ffffffffffffffffffffffffffffffffffffffff16146107d157600080fd5b600060019054906101000a900460ff1615600060016101000a81548160ff021916908315150217905550565b60008060015414156108125760009050610829565b60015442106108245760019050610829565b600090505b90565b600060029054906101000a900473ffffffffffffffffffffffffffffffffffffffff168156fea26469706673582212207ff2a3ee8dade0e79920e971acd661ea0631d6f2db258d794fa2e0f55f56876164736f6c634300060c0033",
  "immutableReferences": {},
  "source": "// SPDX-License-Identifier: GPL-3.0\r\npragma solidity >=0.4.22 <0.8.0;\r\n\r\nimport './Security.sol';\r\n\r\ncontract Trust is Security {\r\n    \r\n    uint256 public deadline;   \r\n    address payable public beneficiary;\r\n    mapping(address => uint256) public balanceOf;\r\n\r\n    address payable[] recipients; \r\n\r\n    // Call parent constructor\r\n    constructor() Security(msg.sender) public {}\r\n\r\n    function initiateTrust() public payable {\r\n        balanceOf[msg.sender] = msg.value;\r\n    }\r\n    \r\n    function setBeneficiary(address payable _address) public {\r\n        beneficiary = _address;\r\n    }\r\n    \r\n    function getTrustBalance() public view returns(uint256 _balance) {\r\n        // Contract Balance\r\n        _balance = address(this).balance;\r\n    }\r\n    \r\n    function disburseFunds() public adminOnly() whenNotPaused() active() {\r\n        bool deadlinePassed = getDeadlinePassed();\r\n        \r\n        if (deadlinePassed){\r\n            beneficiary.transfer(address(this).balance);\r\n        }\r\n    }\r\n    \r\n    function getDeadlinePassed() public view returns (bool) {\r\n        \r\n        // Ensure deadline has been set\r\n        if (deadline == 0) return false;\r\n        \r\n        if (block.timestamp >= deadline) return true;\r\n        \r\n        return false;\r\n    }\r\n    \r\n    function getBlockTimestamp() public view returns(uint256) {\r\n        return block.timestamp;\r\n    }\r\n    \r\n    function setDeadlineSeconds(uint256 sec) public {\r\n        deadline = block.timestamp + sec;\r\n    }\r\n    \r\n    function setDeadlineDays(uint256 numberOfDays) public {\r\n        deadline = block.timestamp + (numberOfDays * 1 days);\r\n    }\r\n    \r\n    function calculatePercentage(uint256 _amount, uint256 _bps) public pure returns(uint256) {\r\n        \r\n        // Ensure amount being calculated is large enough\r\n        require ((_amount / 10000) * 10000 == _amount, 'too small');\r\n        \r\n        // Example: Assume 185 basis points, which is the same as 0.0185\r\n        // To turn 0.0185 into a non-decimal it must be times by 10,10000\r\n        // 0.0185 = 10,000 \r\n        // Then to return the number to its original value it must be divided by 10,000\r\n        \r\n        return _amount * _bps / 10000;\r\n    }\r\n\r\n}",
  "sourcePath": "D:/Code/app/contracts/Trust.sol",
  "compiler": {
    "name": "solc",
    "version": "0.6.12+commit.27d51765.Emscripten.clang"
  },
  "schemaVersion": "3.3.2",
  "updatedAt": "2020-12-11T16:30:42.278Z",
  "devdoc": {
    "kind": "dev",
    "methods": {
      "paused()": {
        "details": "Returns true if the contract is paused, and false otherwise."
      }
    },
    "version": 1
  },
  "userdoc": {
    "kind": "user",
    "methods": {},
    "version": 1
  }
}