{
  "contractName": "Trust",
  "abi": [
    {
      "inputs": [],
      "payable": false,
      "stateMutability": "nonpayable",
      "type": "constructor"
    },
    {
      "constant": true,
      "inputs": [],
      "name": "admin",
      "outputs": [
        {
          "internalType": "address",
          "name": "",
          "type": "address"
        }
      ],
      "payable": false,
      "stateMutability": "view",
      "type": "function"
    },
    {
      "constant": true,
      "inputs": [
        {
          "internalType": "address",
          "name": "",
          "type": "address"
        }
      ],
      "name": "balanceOf",
      "outputs": [
        {
          "internalType": "uint256",
          "name": "",
          "type": "uint256"
        }
      ],
      "payable": false,
      "stateMutability": "view",
      "type": "function"
    },
    {
      "constant": true,
      "inputs": [],
      "name": "beneficiary",
      "outputs": [
        {
          "internalType": "address payable",
          "name": "",
          "type": "address"
        }
      ],
      "payable": false,
      "stateMutability": "view",
      "type": "function"
    },
    {
      "constant": true,
      "inputs": [],
      "name": "deadline",
      "outputs": [
        {
          "internalType": "uint256",
          "name": "",
          "type": "uint256"
        }
      ],
      "payable": false,
      "stateMutability": "view",
      "type": "function"
    },
    {
      "constant": true,
      "inputs": [],
      "name": "isActive",
      "outputs": [
        {
          "internalType": "bool",
          "name": "",
          "type": "bool"
        }
      ],
      "payable": false,
      "stateMutability": "view",
      "type": "function"
    },
    {
      "constant": false,
      "inputs": [],
      "name": "toggleCircuitBreaker",
      "outputs": [],
      "payable": false,
      "stateMutability": "nonpayable",
      "type": "function"
    },
    {
      "constant": false,
      "inputs": [],
      "name": "initiateTrust",
      "outputs": [],
      "payable": true,
      "stateMutability": "payable",
      "type": "function"
    },
    {
      "constant": false,
      "inputs": [
        {
          "internalType": "address payable",
          "name": "_address",
          "type": "address"
        }
      ],
      "name": "setBeneficiary",
      "outputs": [],
      "payable": false,
      "stateMutability": "nonpayable",
      "type": "function"
    },
    {
      "constant": true,
      "inputs": [],
      "name": "getTrustBalance",
      "outputs": [
        {
          "internalType": "uint256",
          "name": "_balance",
          "type": "uint256"
        }
      ],
      "payable": false,
      "stateMutability": "view",
      "type": "function"
    },
    {
      "constant": false,
      "inputs": [],
      "name": "disburseFunds",
      "outputs": [],
      "payable": false,
      "stateMutability": "nonpayable",
      "type": "function"
    },
    {
      "constant": true,
      "inputs": [],
      "name": "getDeadlinePassed",
      "outputs": [
        {
          "internalType": "bool",
          "name": "",
          "type": "bool"
        }
      ],
      "payable": false,
      "stateMutability": "view",
      "type": "function"
    },
    {
      "constant": true,
      "inputs": [],
      "name": "getBlockTimestamp",
      "outputs": [
        {
          "internalType": "uint256",
          "name": "",
          "type": "uint256"
        }
      ],
      "payable": false,
      "stateMutability": "view",
      "type": "function"
    },
    {
      "constant": false,
      "inputs": [
        {
          "internalType": "uint256",
          "name": "sec",
          "type": "uint256"
        }
      ],
      "name": "setDeadlineSeconds",
      "outputs": [],
      "payable": false,
      "stateMutability": "nonpayable",
      "type": "function"
    },
    {
      "constant": false,
      "inputs": [
        {
          "internalType": "uint256",
          "name": "numberOfDays",
          "type": "uint256"
        }
      ],
      "name": "setDeadlineDays",
      "outputs": [],
      "payable": false,
      "stateMutability": "nonpayable",
      "type": "function"
    },
    {
      "constant": true,
      "inputs": [
        {
          "internalType": "uint256",
          "name": "_amount",
          "type": "uint256"
        },
        {
          "internalType": "uint256",
          "name": "_bps",
          "type": "uint256"
        }
      ],
      "name": "calculatePercentage",
      "outputs": [
        {
          "internalType": "uint256",
          "name": "",
          "type": "uint256"
        }
      ],
      "payable": false,
      "stateMutability": "pure",
      "type": "function"
    }
  ],
  "bytecode": "0x608060405260016000806101000a81548160ff02191690831515021790555034801561002a57600080fd5b503380600060016101000a81548173ffffffffffffffffffffffffffffffffffffffff021916908373ffffffffffffffffffffffffffffffffffffffff160217905550506107e48061007d6000396000f3fe6080604052600436106100e85760003560e01c80635707ff581161008a578063b2767fca11610059578063b2767fca1461035f578063d5eb63cc1461039a578063e04095bb146103b1578063f851a440146103e0576100e8565b80635707ff581461029a57806370a08231146102c5578063796b89b91461032a5780638eceff9c14610355576100e8565b806322f3e2d4116100c657806322f3e2d4146101ae578063281536f0146101dd57806329dcb0cf1461021857806338af3eed14610243576100e8565b806314ec993d146100ed5780631c31f710146101045780632133e3b914610155575b600080fd5b3480156100f957600080fd5b50610102610437565b005b34801561011057600080fd5b506101536004803603602081101561012757600080fd5b81019080803573ffffffffffffffffffffffffffffffffffffffff16906020019092919050505061052f565b005b34801561016157600080fd5b506101986004803603604081101561017857600080fd5b810190808035906020019092919080359060200190929190505050610573565b6040518082815260200191505060405180910390f35b3480156101ba57600080fd5b506101c361060d565b604051808215151515815260200191505060405180910390f35b3480156101e957600080fd5b506102166004803603602081101561020057600080fd5b810190808035906020019092919050505061061f565b005b34801561022457600080fd5b5061022d610630565b6040518082815260200191505060405180910390f35b34801561024f57600080fd5b50610258610636565b604051808273ffffffffffffffffffffffffffffffffffffffff1673ffffffffffffffffffffffffffffffffffffffff16815260200191505060405180910390f35b3480156102a657600080fd5b506102af61065c565b6040518082815260200191505060405180910390f35b3480156102d157600080fd5b50610314600480360360208110156102e857600080fd5b81019080803573ffffffffffffffffffffffffffffffffffffffff169060200190929190505050610664565b6040518082815260200191505060405180910390f35b34801561033657600080fd5b5061033f61067c565b6040518082815260200191505060405180910390f35b61035d610684565b005b34801561036b57600080fd5b506103986004803603602081101561038257600080fd5b81019080803590602001909291905050506106ca565b005b3480156103a657600080fd5b506103af6106d6565b005b3480156103bd57600080fd5b506103c661075a565b604051808215151515815260200191505060405180910390f35b3480156103ec57600080fd5b506103f5610789565b604051808273ffffffffffffffffffffffffffffffffffffffff1673ffffffffffffffffffffffffffffffffffffffff16815260200191505060405180910390f35b3373ffffffffffffffffffffffffffffffffffffffff16600060019054906101000a900473ffffffffffffffffffffffffffffffffffffffff1673ffffffffffffffffffffffffffffffffffffffff161461049157600080fd5b600115156000809054906101000a900460ff161515146104b057600080fd5b60006104ba61075a565b9050801561052c57600260009054906101000a900473ffffffffffffffffffffffffffffffffffffffff1673ffffffffffffffffffffffffffffffffffffffff166108fc479081150290604051600060405180830381858888f1935050505015801561052a573d6000803e3d6000fd5b505b50565b80600260006101000a81548173ffffffffffffffffffffffffffffffffffffffff021916908373ffffffffffffffffffffffffffffffffffffffff16021790555050565b60008261271080858161058257fe5b0402146105f7576040517f08c379a00000000000000000000000000000000000000000000000000000000081526004018080602001828103825260098152602001807f746f6f20736d616c6c000000000000000000000000000000000000000000000081525060200191505060405180910390fd5b6127108284028161060457fe5b04905092915050565b6000809054906101000a900460ff1681565b620151808102420160018190555050565b60015481565b600260009054906101000a900473ffffffffffffffffffffffffffffffffffffffff1681565b600047905090565b60036020528060005260406000206000915090505481565b600042905090565b34600360003373ffffffffffffffffffffffffffffffffffffffff1673ffffffffffffffffffffffffffffffffffffffff16815260200190815260200160002081905550565b80420160018190555050565b3373ffffffffffffffffffffffffffffffffffffffff16600060019054906101000a900473ffffffffffffffffffffffffffffffffffffffff1673ffffffffffffffffffffffffffffffffffffffff161461073057600080fd5b6000809054906101000a900460ff16156000806101000a81548160ff021916908315150217905550565b600080600154141561076f5760009050610786565b60015442106107815760019050610786565b600090505b90565b600060019054906101000a900473ffffffffffffffffffffffffffffffffffffffff168156fea265627a7a723158203a214b5d42d73f48c8a328fca1d33070a186badef539cd0dc51c6589f158aebb64736f6c63430005100032",
  "source": "// SPDX-License-Identifier: GPL-3.0\r\npragma solidity >=0.4.22 <0.8.0;\r\n\r\nimport './Security.sol';\r\n\r\ncontract Trust is Security {\r\n    \r\n    uint256 public deadline;   \r\n    address payable public beneficiary;\r\n    mapping(address => uint256) public balanceOf;\r\n\r\n    address payable[] recipients; \r\n\r\n    // Call parent constructor\r\n    constructor() Security(msg.sender) public {}\r\n\r\n    function initiateTrust() public payable {\r\n        balanceOf[msg.sender] = msg.value;\r\n    }\r\n    \r\n    function setBeneficiary(address payable _address) public {\r\n        beneficiary = _address;\r\n    }\r\n    \r\n    function getTrustBalance() public view returns(uint256 _balance) {\r\n        // Contract Balance\r\n        _balance = address(this).balance;\r\n    }\r\n    \r\n    function disburseFunds() public adminOnly active {\r\n        bool deadlinePassed = getDeadlinePassed();\r\n        \r\n        if (deadlinePassed){\r\n            beneficiary.transfer(address(this).balance);\r\n        }\r\n    }\r\n    \r\n    function getDeadlinePassed() public view returns (bool) {\r\n        \r\n        // Ensure deadline has been set\r\n        if (deadline == 0) return false;\r\n        \r\n        if (block.timestamp >= deadline) return true;\r\n        \r\n        return false;\r\n    }\r\n    \r\n    function getBlockTimestamp() public view returns(uint256) {\r\n        return block.timestamp;\r\n    }\r\n    \r\n    function setDeadlineSeconds(uint256 sec) public {\r\n        deadline = block.timestamp + sec;\r\n    }\r\n    \r\n    function setDeadlineDays(uint256 numberOfDays) public {\r\n        deadline = block.timestamp + (numberOfDays * 1 days);\r\n    }\r\n    \r\n    function calculatePercentage(uint256 _amount, uint256 _bps) public pure returns(uint256) {\r\n        \r\n        // Ensure amount being calculated is large enough\r\n        require ((_amount / 10000) * 10000 == _amount, 'too small');\r\n        \r\n        // Example: Assume 185 basis points, which is the same as 0.0185\r\n        // To turn 0.0185 into a non-decimal it must be times by 10,10000\r\n        // 0.0185 = 10,000 \r\n        // Then to return the number to its original value it must be divided by 10,000\r\n        \r\n        return _amount * _bps / 10000;\r\n    }\r\n\r\n}",
  "sourcePath": "D:/Code/app/contracts/Trust.sol",
  "compiler": {
    "name": "solc",
    "version": "0.5.16+commit.9c3226ce.Emscripten.clang"
  },
  "schemaVersion": "3.3.2",
  "updatedAt": "2020-12-11T00:52:23.051Z",
  "devdoc": {
    "methods": {}
  },
  "userdoc": {
    "methods": {}
  }
}