{
  "contractName": "Trust",
  "abi": [
    {
      "constant": true,
      "inputs": [
        {
          "internalType": "address",
          "name": "",
          "type": "address"
        }
      ],
      "name": "balanceOf",
      "outputs": [
        {
          "internalType": "uint256",
          "name": "",
          "type": "uint256"
        }
      ],
      "payable": false,
      "stateMutability": "view",
      "type": "function"
    },
    {
      "constant": true,
      "inputs": [],
      "name": "beneficiary",
      "outputs": [
        {
          "internalType": "address payable",
          "name": "",
          "type": "address"
        }
      ],
      "payable": false,
      "stateMutability": "view",
      "type": "function"
    },
    {
      "constant": true,
      "inputs": [],
      "name": "deadline",
      "outputs": [
        {
          "internalType": "uint256",
          "name": "",
          "type": "uint256"
        }
      ],
      "payable": false,
      "stateMutability": "view",
      "type": "function"
    },
    {
      "constant": false,
      "inputs": [],
      "name": "initiateTrust",
      "outputs": [],
      "payable": true,
      "stateMutability": "payable",
      "type": "function"
    },
    {
      "constant": false,
      "inputs": [
        {
          "internalType": "address payable",
          "name": "_address",
          "type": "address"
        }
      ],
      "name": "setBeneficiary",
      "outputs": [],
      "payable": false,
      "stateMutability": "nonpayable",
      "type": "function"
    },
    {
      "constant": true,
      "inputs": [],
      "name": "getTrustBalance",
      "outputs": [
        {
          "internalType": "uint256",
          "name": "_balance",
          "type": "uint256"
        }
      ],
      "payable": false,
      "stateMutability": "view",
      "type": "function"
    },
    {
      "constant": false,
      "inputs": [],
      "name": "disburseFunds",
      "outputs": [],
      "payable": false,
      "stateMutability": "nonpayable",
      "type": "function"
    },
    {
      "constant": true,
      "inputs": [],
      "name": "getDeadlinePassed",
      "outputs": [
        {
          "internalType": "bool",
          "name": "",
          "type": "bool"
        }
      ],
      "payable": false,
      "stateMutability": "view",
      "type": "function"
    },
    {
      "constant": true,
      "inputs": [],
      "name": "getBlockTimestamp",
      "outputs": [
        {
          "internalType": "uint256",
          "name": "",
          "type": "uint256"
        }
      ],
      "payable": false,
      "stateMutability": "view",
      "type": "function"
    },
    {
      "constant": false,
      "inputs": [
        {
          "internalType": "uint256",
          "name": "sec",
          "type": "uint256"
        }
      ],
      "name": "setDeadlineSeconds",
      "outputs": [],
      "payable": false,
      "stateMutability": "nonpayable",
      "type": "function"
    },
    {
      "constant": false,
      "inputs": [
        {
          "internalType": "uint256",
          "name": "numberOfDays",
          "type": "uint256"
        }
      ],
      "name": "setDeadlineDays",
      "outputs": [],
      "payable": false,
      "stateMutability": "nonpayable",
      "type": "function"
    },
    {
      "constant": true,
      "inputs": [
        {
          "internalType": "uint256",
          "name": "_amount",
          "type": "uint256"
        },
        {
          "internalType": "uint256",
          "name": "_bps",
          "type": "uint256"
        }
      ],
      "name": "calculatePercentage",
      "outputs": [
        {
          "internalType": "uint256",
          "name": "",
          "type": "uint256"
        }
      ],
      "payable": false,
      "stateMutability": "pure",
      "type": "function"
    }
  ],
  "bytecode": "0x608060405234801561001057600080fd5b506105d1806100206000396000f3fe6080604052600436106100a75760003560e01c80635707ff58116100645780635707ff581461022a57806370a0823114610255578063796b89b9146102ba5780638eceff9c146102e5578063b2767fca146102ef578063e04095bb1461032a576100a7565b806314ec993d146100ac5780631c31f710146100c35780632133e3b914610114578063281536f01461016d57806329dcb0cf146101a857806338af3eed146101d3575b600080fd5b3480156100b857600080fd5b506100c1610359565b005b3480156100cf57600080fd5b50610112600480360360208110156100e657600080fd5b81019080803573ffffffffffffffffffffffffffffffffffffffff1690602001909291905050506103d8565b005b34801561012057600080fd5b506101576004803603604081101561013757600080fd5b81019080803590602001909291908035906020019092919050505061041c565b6040518082815260200191505060405180910390f35b34801561017957600080fd5b506101a66004803603602081101561019057600080fd5b81019080803590602001909291905050506104b6565b005b3480156101b457600080fd5b506101bd6104c7565b6040518082815260200191505060405180910390f35b3480156101df57600080fd5b506101e86104cd565b604051808273ffffffffffffffffffffffffffffffffffffffff1673ffffffffffffffffffffffffffffffffffffffff16815260200191505060405180910390f35b34801561023657600080fd5b5061023f6104f3565b6040518082815260200191505060405180910390f35b34801561026157600080fd5b506102a46004803603602081101561027857600080fd5b81019080803573ffffffffffffffffffffffffffffffffffffffff1690602001909291905050506104fb565b6040518082815260200191505060405180910390f35b3480156102c657600080fd5b506102cf610513565b6040518082815260200191505060405180910390f35b6102ed61051b565b005b3480156102fb57600080fd5b506103286004803603602081101561031257600080fd5b8101908080359060200190929190505050610561565b005b34801561033657600080fd5b5061033f61056d565b604051808215151515815260200191505060405180910390f35b600061036361056d565b905080156103d557600160009054906101000a900473ffffffffffffffffffffffffffffffffffffffff1673ffffffffffffffffffffffffffffffffffffffff166108fc479081150290604051600060405180830381858888f193505050501580156103d3573d6000803e3d6000fd5b505b50565b80600160006101000a81548173ffffffffffffffffffffffffffffffffffffffff021916908373ffffffffffffffffffffffffffffffffffffffff16021790555050565b60008261271080858161042b57fe5b0402146104a0576040517f08c379a00000000000000000000000000000000000000000000000000000000081526004018080602001828103825260098152602001807f746f6f20736d616c6c000000000000000000000000000000000000000000000081525060200191505060405180910390fd5b612710828402816104ad57fe5b04905092915050565b620151808102420160008190555050565b60005481565b600160009054906101000a900473ffffffffffffffffffffffffffffffffffffffff1681565b600047905090565b60026020528060005260406000206000915090505481565b600042905090565b34600260003373ffffffffffffffffffffffffffffffffffffffff1673ffffffffffffffffffffffffffffffffffffffff16815260200190815260200160002081905550565b80420160008190555050565b60008060005414156105825760009050610599565b60005442106105945760019050610599565b600090505b9056fea265627a7a72315820a8782b14a3e6313577cca1f3c4bd212068371305376cdc958bb5925c966d339764736f6c63430005100032",
  "source": "// SPDX-License-Identifier: GPL-3.0\r\npragma solidity >=0.4.22 <0.8.0;\r\n\r\ncontract Trust {\r\n    \r\n    uint256 public deadline;   \r\n    address payable public beneficiary;\r\n    mapping(address => uint256) public balanceOf;\r\n\r\n    // Declare an array of payable recipients\r\n    // address payable[] recipients; \r\n\r\n    function initiateTrust() public payable {\r\n        balanceOf[msg.sender] = msg.value;\r\n    }\r\n    \r\n    function setBeneficiary(address payable _address) public {\r\n        beneficiary = _address;\r\n    }\r\n    \r\n    function getTrustBalance() public view returns(uint256 _balance) {\r\n        // Contract Balance\r\n        _balance = address(this).balance;\r\n    }\r\n    \r\n    function disburseFunds() public {\r\n        bool deadlinePassed = getDeadlinePassed();\r\n        \r\n        if (deadlinePassed){\r\n\r\n            // This sends the entire contract balance to the beneficiary\r\n            beneficiary.transfer(address(this).balance);\r\n\r\n            // Syntax to transfer to the address calling the contract\r\n            // msg.sender.transfer();\r\n        }\r\n    }\r\n    \r\n    function getDeadlinePassed() public view returns (bool) {\r\n        \r\n        // Ensure deadline has been set\r\n        if (deadline == 0) return false;\r\n        \r\n        if (block.timestamp >= deadline) return true;\r\n        \r\n        return false;\r\n    }\r\n    \r\n    function getBlockTimestamp() public view returns(uint256) {\r\n        return block.timestamp;\r\n    }\r\n    \r\n    function setDeadlineSeconds(uint256 sec) public {\r\n        deadline = block.timestamp + sec;\r\n    }\r\n    \r\n    function setDeadlineDays(uint256 numberOfDays) public {\r\n        deadline = block.timestamp + (numberOfDays * 1 days);\r\n    }\r\n\r\n    function calculatePercentage(uint256 _amount, uint256 _bps) public pure returns(uint256) {\r\n        \r\n        // Ensure amount being calculated is large enough\r\n        require ((_amount / 10000) * 10000 == _amount, 'too small');\r\n        \r\n        // Example: Assume 185 basis points, which is the same as 0.0185\r\n        // To turn 0.0185 into a non-decimal it must be times by 10,10000\r\n        // 0.0185 = 10,000 \r\n        // Then to return the number to its original value it must be divided by 10,000\r\n        \r\n        return _amount * _bps / 10000;\r\n    }\r\n\r\n}",
  "sourcePath": "D:/Code/app/contracts/Trust.sol",
  "compiler": {
    "name": "solc",
    "version": "0.5.16+commit.9c3226ce.Emscripten.clang"
  },
  "schemaVersion": "3.3.2",
  "updatedAt": "2020-12-10T21:49:27.478Z",
  "devdoc": {
    "methods": {}
  },
  "userdoc": {
    "methods": {}
  }
}